{
  "_format": "hh-sol-artifact-1",
  "contractName": "BuyMeACoffee",
  "sourceName": "contracts/BuyMeACoffee.sol",
  "abi": [
    {
      "inputs": [],
      "stateMutability": "nonpayable",
      "type": "constructor"
    },
    {
      "anonymous": false,
      "inputs": [
        {
          "indexed": true,
          "internalType": "address",
          "name": "from",
          "type": "address"
        },
        {
          "indexed": false,
          "internalType": "uint256",
          "name": "timestamp",
          "type": "uint256"
        },
        {
          "indexed": false,
          "internalType": "string",
          "name": "name",
          "type": "string"
        },
        {
          "indexed": false,
          "internalType": "string",
          "name": "message",
          "type": "string"
        }
      ],
      "name": "NewMemo",
      "type": "event"
    },
    {
      "inputs": [
        {
          "internalType": "string",
          "name": "_name",
          "type": "string"
        },
        {
          "internalType": "string",
          "name": "_message",
          "type": "string"
        }
      ],
      "name": "buyCoffee",
      "outputs": [],
      "stateMutability": "payable",
      "type": "function"
    },
    {
      "inputs": [],
      "name": "getMemos",
      "outputs": [
        {
          "components": [
            {
              "internalType": "address",
              "name": "from",
              "type": "address"
            },
            {
              "internalType": "uint256",
              "name": "timestamp",
              "type": "uint256"
            },
            {
              "internalType": "string",
              "name": "name",
              "type": "string"
            },
            {
              "internalType": "string",
              "name": "message",
              "type": "string"
            }
          ],
          "internalType": "struct BuyMeACoffee.Memo[]",
          "name": "",
          "type": "tuple[]"
        }
      ],
      "stateMutability": "view",
      "type": "function"
    },
    {
      "inputs": [
        {
          "internalType": "address",
          "name": "_address",
          "type": "address"
        }
      ],
      "name": "updateWithdrawalAddress",
      "outputs": [],
      "stateMutability": "nonpayable",
      "type": "function"
    },
    {
      "inputs": [],
      "name": "withdrawTips",
      "outputs": [],
      "stateMutability": "nonpayable",
      "type": "function"
    }
  ],
  "bytecode": "0x608060405234801561001057600080fd5b50336000806101000a81548173ffffffffffffffffffffffffffffffffffffffff021916908373ffffffffffffffffffffffffffffffffffffffff16021790555033600260006101000a81548173ffffffffffffffffffffffffffffffffffffffff021916908373ffffffffffffffffffffffffffffffffffffffff160217905550610c48806100a16000396000f3fe60806040526004361061003f5760003560e01c8063204206e1146100445780633aaa74b2146100605780635e72fc5d14610077578063865c5172146100a0575b600080fd5b61005e600480360381019061005991906106b2565b6100cb565b005b34801561006c57600080fd5b50610075610253565b005b34801561008357600080fd5b5061009e60048036038101906100999190610689565b6102b3565b005b3480156100ac57600080fd5b506100b5610386565b6040516100c291906108f6565b60405180910390f35b6000341161010e576040517f08c379a000000000000000000000000000000000000000000000000000000000815260040161010590610938565b60405180910390fd5b600160405180608001604052803373ffffffffffffffffffffffffffffffffffffffff16815260200142815260200184815260200183815250908060018154018082558091505060019003906000526020600020906004020160009091909190915060008201518160000160006101000a81548173ffffffffffffffffffffffffffffffffffffffff021916908373ffffffffffffffffffffffffffffffffffffffff1602179055506020820151816001015560408201518160020190805190602001906101dd929190610569565b5060608201518160030190805190602001906101fa929190610569565b5050503373ffffffffffffffffffffffffffffffffffffffff167fc56140e05f516509ae28110e0f72e17558a7561630dad2647c3ae87d986e365c42848460405161024793929190610958565b60405180910390a25050565b60008054906101000a900473ffffffffffffffffffffffffffffffffffffffff1673ffffffffffffffffffffffffffffffffffffffff166108fc479081150290604051600060405180830381858888f193505050506102b157600080fd5b565b3373ffffffffffffffffffffffffffffffffffffffff16600260009054906101000a900473ffffffffffffffffffffffffffffffffffffffff1673ffffffffffffffffffffffffffffffffffffffff1614610343576040517f08c379a000000000000000000000000000000000000000000000000000000000815260040161033a90610918565b60405180910390fd5b806000806101000a81548173ffffffffffffffffffffffffffffffffffffffff021916908373ffffffffffffffffffffffffffffffffffffffff16021790555050565b60606001805480602002602001604051908101604052809291908181526020016000905b8282101561056057838290600052602060002090600402016040518060800160405290816000820160009054906101000a900473ffffffffffffffffffffffffffffffffffffffff1673ffffffffffffffffffffffffffffffffffffffff1673ffffffffffffffffffffffffffffffffffffffff1681526020016001820154815260200160028201805461043d90610ad7565b80601f016020809104026020016040519081016040528092919081815260200182805461046990610ad7565b80156104b65780601f1061048b576101008083540402835291602001916104b6565b820191906000526020600020905b81548152906001019060200180831161049957829003601f168201915b505050505081526020016003820180546104cf90610ad7565b80601f01602080910402602001604051908101604052809291908181526020018280546104fb90610ad7565b80156105485780601f1061051d57610100808354040283529160200191610548565b820191906000526020600020905b81548152906001019060200180831161052b57829003601f168201915b505050505081525050815260200190600101906103aa565b50505050905090565b82805461057590610ad7565b90600052602060002090601f01602090048101928261059757600085556105de565b82601f106105b057805160ff19168380011785556105de565b828001600101855582156105de579182015b828111156105dd5782518255916020019190600101906105c2565b5b5090506105eb91906105ef565b5090565b5b808211156106085760008160009055506001016105f0565b5090565b600061061f61061a846109c2565b61099d565b90508281526020810184848401111561063757600080fd5b610642848285610a95565b509392505050565b60008135905061065981610bfb565b92915050565b600082601f83011261067057600080fd5b813561068084826020860161060c565b91505092915050565b60006020828403121561069b57600080fd5b60006106a98482850161064a565b91505092915050565b600080604083850312156106c557600080fd5b600083013567ffffffffffffffff8111156106df57600080fd5b6106eb8582860161065f565b925050602083013567ffffffffffffffff81111561070857600080fd5b6107148582860161065f565b9150509250929050565b600061072a838361086e565b905092915050565b61073b81610a59565b82525050565b600061074c82610a03565b6107568185610a26565b935083602082028501610768856109f3565b8060005b858110156107a45784840389528151610785858261071e565b945061079083610a19565b925060208a0199505060018101905061076c565b50829750879550505050505092915050565b60006107c182610a0e565b6107cb8185610a37565b93506107db818560208601610aa4565b6107e481610b98565b840191505092915050565b60006107fa82610a0e565b6108048185610a48565b9350610814818560208601610aa4565b61081d81610b98565b840191505092915050565b6000610835601683610a48565b915061084082610ba9565b602082019050919050565b6000610858601a83610a48565b915061086382610bd2565b602082019050919050565b60006080830160008301516108866000860182610732565b50602083015161089960208601826108d8565b50604083015184820360408601526108b182826107b6565b915050606083015184820360608601526108cb82826107b6565b9150508091505092915050565b6108e181610a8b565b82525050565b6108f081610a8b565b82525050565b600060208201905081810360008301526109108184610741565b905092915050565b6000602082019050818103600083015261093181610828565b9050919050565b600060208201905081810360008301526109518161084b565b9050919050565b600060608201905061096d60008301866108e7565b818103602083015261097f81856107ef565b9050818103604083015261099381846107ef565b9050949350505050565b60006109a76109b8565b90506109b38282610b09565b919050565b6000604051905090565b600067ffffffffffffffff8211156109dd576109dc610b69565b5b6109e682610b98565b9050602081019050919050565b6000819050602082019050919050565b600081519050919050565b600081519050919050565b6000602082019050919050565b600082825260208201905092915050565b600082825260208201905092915050565b600082825260208201905092915050565b6000610a6482610a6b565b9050919050565b600073ffffffffffffffffffffffffffffffffffffffff82169050919050565b6000819050919050565b82818337600083830152505050565b60005b83811015610ac2578082015181840152602081019050610aa7565b83811115610ad1576000848401525b50505050565b60006002820490506001821680610aef57607f821691505b60208210811415610b0357610b02610b3a565b5b50919050565b610b1282610b98565b810181811067ffffffffffffffff82111715610b3157610b30610b69565b5b80604052505050565b7f4e487b7100000000000000000000000000000000000000000000000000000000600052602260045260246000fd5b7f4e487b7100000000000000000000000000000000000000000000000000000000600052604160045260246000fd5b6000601f19601f8301169050919050565b7f43616c6c61626c65206279206f776e6572206f6e6c7900000000000000000000600082015250565b7f63616e27742062757920636f6666656520666f72206672656521000000000000600082015250565b610c0481610a59565b8114610c0f57600080fd5b5056fea26469706673582212209ab9894e5e59d0e046eb4fa1798c22bcad639421632bb5727c45836e2c9889b964736f6c63430008040033",
  "linkReferences": {},
  "deployedLinkReferences": {}
}